{
  "_format": "hh-sol-artifact-1",
  "contractName": "BasicMultiSig",
  "sourceName": "contracts/BasicMultiSig.sol",
  "abi": [
    {
      "inputs": [
        {
          "internalType": "address[]",
          "name": "_owners",
          "type": "address[]"
        },
        {
          "internalType": "uint256",
          "name": "_requiredApprovals",
          "type": "uint256"
        }
      ],
      "stateMutability": "nonpayable",
      "type": "constructor"
    },
    {
      "anonymous": false,
      "inputs": [
        {
          "indexed": true,
          "internalType": "address",
          "name": "owner",
          "type": "address"
        },
        {
          "indexed": true,
          "internalType": "uint256",
          "name": "txId",
          "type": "uint256"
        }
      ],
      "name": "Approve",
      "type": "event"
    },
    {
      "anonymous": false,
      "inputs": [
        {
          "indexed": true,
          "internalType": "address",
          "name": "sender",
          "type": "address"
        },
        {
          "indexed": false,
          "internalType": "uint256",
          "name": "amount",
          "type": "uint256"
        },
        {
          "indexed": false,
          "internalType": "uint256",
          "name": "balance",
          "type": "uint256"
        }
      ],
      "name": "Deposit",
      "type": "event"
    },
    {
      "anonymous": false,
      "inputs": [
        {
          "indexed": true,
          "internalType": "uint256",
          "name": "txId",
          "type": "uint256"
        }
      ],
      "name": "Execute",
      "type": "event"
    },
    {
      "anonymous": false,
      "inputs": [
        {
          "indexed": true,
          "internalType": "address",
          "name": "owner",
          "type": "address"
        },
        {
          "indexed": true,
          "internalType": "uint256",
          "name": "txId",
          "type": "uint256"
        }
      ],
      "name": "Revoke",
      "type": "event"
    },
    {
      "anonymous": false,
      "inputs": [
        {
          "indexed": true,
          "internalType": "uint256",
          "name": "txId",
          "type": "uint256"
        },
        {
          "indexed": true,
          "internalType": "address",
          "name": "to",
          "type": "address"
        },
        {
          "indexed": false,
          "internalType": "uint256",
          "name": "value",
          "type": "uint256"
        },
        {
          "indexed": false,
          "internalType": "bytes",
          "name": "data",
          "type": "bytes"
        }
      ],
      "name": "Submit",
      "type": "event"
    },
    {
      "inputs": [
        {
          "internalType": "uint256",
          "name": "txId",
          "type": "uint256"
        }
      ],
      "name": "approveTransaction",
      "outputs": [],
      "stateMutability": "nonpayable",
      "type": "function"
    },
    {
      "inputs": [
        {
          "internalType": "uint256",
          "name": "",
          "type": "uint256"
        },
        {
          "internalType": "address",
          "name": "",
          "type": "address"
        }
      ],
      "name": "approvedBy",
      "outputs": [
        {
          "internalType": "bool",
          "name": "",
          "type": "bool"
        }
      ],
      "stateMutability": "view",
      "type": "function"
    },
    {
      "inputs": [
        {
          "internalType": "uint256",
          "name": "txId",
          "type": "uint256"
        }
      ],
      "name": "executeTransaction",
      "outputs": [],
      "stateMutability": "nonpayable",
      "type": "function"
    },
    {
      "inputs": [],
      "name": "getOwners",
      "outputs": [
        {
          "internalType": "address[]",
          "name": "",
          "type": "address[]"
        }
      ],
      "stateMutability": "view",
      "type": "function"
    },
    {
      "inputs": [],
      "name": "getTransactionCount",
      "outputs": [
        {
          "internalType": "uint256",
          "name": "",
          "type": "uint256"
        }
      ],
      "stateMutability": "view",
      "type": "function"
    },
    {
      "inputs": [
        {
          "internalType": "address",
          "name": "",
          "type": "address"
        }
      ],
      "name": "isOwner",
      "outputs": [
        {
          "internalType": "bool",
          "name": "",
          "type": "bool"
        }
      ],
      "stateMutability": "view",
      "type": "function"
    },
    {
      "inputs": [
        {
          "internalType": "uint256",
          "name": "",
          "type": "uint256"
        }
      ],
      "name": "owners",
      "outputs": [
        {
          "internalType": "address",
          "name": "",
          "type": "address"
        }
      ],
      "stateMutability": "view",
      "type": "function"
    },
    {
      "inputs": [],
      "name": "requiredApprovals",
      "outputs": [
        {
          "internalType": "uint256",
          "name": "",
          "type": "uint256"
        }
      ],
      "stateMutability": "view",
      "type": "function"
    },
    {
      "inputs": [
        {
          "internalType": "uint256",
          "name": "txId",
          "type": "uint256"
        }
      ],
      "name": "revokeApproval",
      "outputs": [],
      "stateMutability": "nonpayable",
      "type": "function"
    },
    {
      "inputs": [
        {
          "internalType": "address",
          "name": "_to",
          "type": "address"
        },
        {
          "internalType": "uint256",
          "name": "_value",
          "type": "uint256"
        },
        {
          "internalType": "bytes",
          "name": "_data",
          "type": "bytes"
        }
      ],
      "name": "submitTransaction",
      "outputs": [],
      "stateMutability": "nonpayable",
      "type": "function"
    },
    {
      "inputs": [
        {
          "internalType": "uint256",
          "name": "",
          "type": "uint256"
        }
      ],
      "name": "transactions",
      "outputs": [
        {
          "internalType": "address",
          "name": "to",
          "type": "address"
        },
        {
          "internalType": "uint256",
          "name": "value",
          "type": "uint256"
        },
        {
          "internalType": "bytes",
          "name": "data",
          "type": "bytes"
        },
        {
          "internalType": "bool",
          "name": "executed",
          "type": "bool"
        },
        {
          "internalType": "uint256",
          "name": "approvalCount",
          "type": "uint256"
        }
      ],
      "stateMutability": "view",
      "type": "function"
    },
    {
      "stateMutability": "payable",
      "type": "receive"
    }
  ],
  "bytecode": "0x60806040523480156200001157600080fd5b50604051620025933803806200259383398181016040528101906200003791906200050d565b60008251116200007e576040517f08c379a00000000000000000000000000000000000000000000000000000000081526004016200007590620005d4565b60405180910390fd5b60008111801562000090575081518111155b620000d2576040517f08c379a0000000000000000000000000000000000000000000000000000000008152600401620000c99062000646565b60405180910390fd5b60005b8251811015620002d4576000838281518110620000f757620000f662000668565b5b60200260200101519050600073ffffffffffffffffffffffffffffffffffffffff168173ffffffffffffffffffffffffffffffffffffffff160362000173576040517f08c379a00000000000000000000000000000000000000000000000000000000081526004016200016a90620006e7565b60405180910390fd5b600160008273ffffffffffffffffffffffffffffffffffffffff1673ffffffffffffffffffffffffffffffffffffffff16815260200190815260200160002060009054906101000a900460ff161562000203576040517f08c379a0000000000000000000000000000000000000000000000000000000008152600401620001fa9062000759565b60405180910390fd5b60018060008373ffffffffffffffffffffffffffffffffffffffff1673ffffffffffffffffffffffffffffffffffffffff16815260200190815260200160002060006101000a81548160ff0219169083151502179055506000819080600181540180825580915050600190039060005260206000200160009091909190916101000a81548173ffffffffffffffffffffffffffffffffffffffff021916908373ffffffffffffffffffffffffffffffffffffffff160217905550508080620002cb90620007aa565b915050620000d5565b50806002819055505050620007f7565b6000604051905090565b600080fd5b600080fd5b600080fd5b6000601f19601f8301169050919050565b7f4e487b7100000000000000000000000000000000000000000000000000000000600052604160045260246000fd5b6200034882620002fd565b810181811067ffffffffffffffff821117156200036a57620003696200030e565b5b80604052505050565b60006200037f620002e4565b90506200038d82826200033d565b919050565b600067ffffffffffffffff821115620003b057620003af6200030e565b5b602082029050602081019050919050565b600080fd5b600073ffffffffffffffffffffffffffffffffffffffff82169050919050565b6000620003f382620003c6565b9050919050565b6200040581620003e6565b81146200041157600080fd5b50565b6000815190506200042581620003fa565b92915050565b6000620004426200043c8462000392565b62000373565b90508083825260208201905060208402830185811115620004685762000467620003c1565b5b835b8181101562000495578062000480888262000414565b8452602084019350506020810190506200046a565b5050509392505050565b600082601f830112620004b757620004b6620002f8565b5b8151620004c98482602086016200042b565b91505092915050565b6000819050919050565b620004e781620004d2565b8114620004f357600080fd5b50565b6000815190506200050781620004dc565b92915050565b60008060408385031215620005275762000526620002ee565b5b600083015167ffffffffffffffff811115620005485762000547620002f3565b5b62000556858286016200049f565b92505060206200056985828601620004f6565b9150509250929050565b600082825260208201905092915050565b7f4f776e6572732072657175697265640000000000000000000000000000000000600082015250565b6000620005bc600f8362000573565b9150620005c98262000584565b602082019050919050565b60006020820190508181036000830152620005ef81620005ad565b9050919050565b7f496e76616c696420617070726f76616c207468726573686f6c64000000000000600082015250565b60006200062e601a8362000573565b91506200063b82620005f6565b602082019050919050565b6000602082019050818103600083015262000661816200061f565b9050919050565b7f4e487b7100000000000000000000000000000000000000000000000000000000600052603260045260246000fd5b7f496e76616c6964206f776e657200000000000000000000000000000000000000600082015250565b6000620006cf600d8362000573565b9150620006dc8262000697565b602082019050919050565b600060208201905081810360008301526200070281620006c0565b9050919050565b7f4475706c6963617465206f776e65720000000000000000000000000000000000600082015250565b600062000741600f8362000573565b91506200074e8262000709565b602082019050919050565b60006020820190508181036000830152620007748162000732565b9050919050565b7f4e487b7100000000000000000000000000000000000000000000000000000000600052601160045260246000fd5b6000620007b782620004d2565b91507fffffffffffffffffffffffffffffffffffffffffffffffffffffffffffffffff8203620007ec57620007eb6200077b565b5b600182019050919050565b611d8c80620008076000396000f3fe6080604052600436106100a05760003560e01c806399c1aadc1161006457806399c1aadc146102075780639ace38c214610232578063a0e67e2b14610273578063b1e130fc1461029e578063c6427474146102c7578063ee22610b146102f0576100f7565b8063025e7c27146100fc578063242232d1146101395780632e7700f0146101625780632f54bf6e1461018d57806385667f1c146101ca576100f7565b366100f7573373ffffffffffffffffffffffffffffffffffffffff167f90890809c654f11d6e72a28fa60149770a0d11ec6c92319d6ceb2bb0a4ea1a1534476040516100ed92919061108a565b60405180910390a2005b600080fd5b34801561010857600080fd5b50610123600480360381019061011e91906110e9565b610319565b6040516101309190611157565b60405180910390f35b34801561014557600080fd5b50610160600480360381019061015b91906110e9565b610358565b005b34801561016e57600080fd5b5061017761062f565b6040516101849190611172565b60405180910390f35b34801561019957600080fd5b506101b460048036038101906101af91906111b9565b61063c565b6040516101c19190611201565b60405180910390f35b3480156101d657600080fd5b506101f160048036038101906101ec919061121c565b61065c565b6040516101fe9190611201565b60405180910390f35b34801561021357600080fd5b5061021c61068b565b6040516102299190611172565b60405180910390f35b34801561023e57600080fd5b50610259600480360381019061025491906110e9565b610691565b60405161026a9594939291906112ec565b60405180910390f35b34801561027f57600080fd5b5061028861078c565b6040516102959190611404565b60405180910390f35b3480156102aa57600080fd5b506102c560048036038101906102c091906110e9565b61081a565b005b3480156102d357600080fd5b506102ee60048036038101906102e9919061148b565b610aee565b005b3480156102fc57600080fd5b50610317600480360381019061031291906110e9565b610d90565b005b6000818154811061032957600080fd5b906000526020600020016000915054906101000a900473ffffffffffffffffffffffffffffffffffffffff1681565b600160003373ffffffffffffffffffffffffffffffffffffffff1673ffffffffffffffffffffffffffffffffffffffff16815260200190815260200160002060009054906101000a900460ff166103e4576040517f08c379a00000000000000000000000000000000000000000000000000000000081526004016103db9061155c565b60405180910390fd5b80600380549050811061042c576040517f08c379a0000000000000000000000000000000000000000000000000000000008152600401610423906115c8565b60405180910390fd5b8160038181548110610441576104406115e8565b5b906000526020600020906005020160030160009054906101000a900460ff16156104a0576040517f08c379a000000000000000000000000000000000000000000000000000000000815260040161049790611663565b60405180910390fd5b826004600082815260200190815260200160002060003373ffffffffffffffffffffffffffffffffffffffff1673ffffffffffffffffffffffffffffffffffffffff16815260200190815260200160002060009054906101000a900460ff161561053f576040517f08c379a0000000000000000000000000000000000000000000000000000000008152600401610536906116cf565b60405180910390fd5b60016004600086815260200190815260200160002060003373ffffffffffffffffffffffffffffffffffffffff1673ffffffffffffffffffffffffffffffffffffffff16815260200190815260200160002060006101000a81548160ff0219169083151502179055506001600385815481106105be576105bd6115e8565b5b906000526020600020906005020160040160008282546105de919061171e565b92505081905550833373ffffffffffffffffffffffffffffffffffffffff167f90ec57f18fa7b15c6b8d5e4d1deb90796c74b2ff23d4d0cecad0cb42a96b312860405160405180910390a350505050565b6000600380549050905090565b60016020528060005260406000206000915054906101000a900460ff1681565b60046020528160005260406000206020528060005260406000206000915091509054906101000a900460ff1681565b60025481565b600381815481106106a157600080fd5b90600052602060002090600502016000915090508060000160009054906101000a900473ffffffffffffffffffffffffffffffffffffffff16908060010154908060020180546106f090611781565b80601f016020809104026020016040519081016040528092919081815260200182805461071c90611781565b80156107695780601f1061073e57610100808354040283529160200191610769565b820191906000526020600020905b81548152906001019060200180831161074c57829003601f168201915b5050505050908060030160009054906101000a900460ff16908060040154905085565b6060600080548060200260200160405190810160405280929190818152602001828054801561081057602002820191906000526020600020905b8160009054906101000a900473ffffffffffffffffffffffffffffffffffffffff1673ffffffffffffffffffffffffffffffffffffffff16815260200190600101908083116107c6575b5050505050905090565b600160003373ffffffffffffffffffffffffffffffffffffffff1673ffffffffffffffffffffffffffffffffffffffff16815260200190815260200160002060009054906101000a900460ff166108a6576040517f08c379a000000000000000000000000000000000000000000000000000000000815260040161089d9061155c565b60405180910390fd5b8060038054905081106108ee576040517f08c379a00000000000000000000000000000000000000000000000000000000081526004016108e5906115c8565b60405180910390fd5b8160038181548110610903576109026115e8565b5b906000526020600020906005020160030160009054906101000a900460ff1615610962576040517f08c379a000000000000000000000000000000000000000000000000000000000815260040161095990611663565b60405180910390fd5b6004600084815260200190815260200160002060003373ffffffffffffffffffffffffffffffffffffffff1673ffffffffffffffffffffffffffffffffffffffff16815260200190815260200160002060009054906101000a900460ff166109ff576040517f08c379a00000000000000000000000000000000000000000000000000000000081526004016109f6906117fe565b60405180910390fd5b60006004600085815260200190815260200160002060003373ffffffffffffffffffffffffffffffffffffffff1673ffffffffffffffffffffffffffffffffffffffff16815260200190815260200160002060006101000a81548160ff021916908315150217905550600160038481548110610a7e57610a7d6115e8565b5b90600052602060002090600502016004016000828254610a9e919061181e565b92505081905550823373ffffffffffffffffffffffffffffffffffffffff167fec9ab91322523c899ede7830ec9bfc992b5981cdcc27b91162fb23de5791117b60405160405180910390a3505050565b600160003373ffffffffffffffffffffffffffffffffffffffff1673ffffffffffffffffffffffffffffffffffffffff16815260200190815260200160002060009054906101000a900460ff16610b7a576040517f08c379a0000000000000000000000000000000000000000000000000000000008152600401610b719061155c565b60405180910390fd5b600073ffffffffffffffffffffffffffffffffffffffff168473ffffffffffffffffffffffffffffffffffffffff1603610be9576040517f08c379a0000000000000000000000000000000000000000000000000000000008152600401610be09061189e565b60405180910390fd5b6000600380549050905060036040518060a001604052808773ffffffffffffffffffffffffffffffffffffffff16815260200186815260200185858080601f016020809104026020016040519081016040528093929190818152602001838380828437600081840152601f19601f8201169050808301925050505050505081526020016000151581526020016000815250908060018154018082558091505060019003906000526020600020906005020160009091909190915060008201518160000160006101000a81548173ffffffffffffffffffffffffffffffffffffffff021916908373ffffffffffffffffffffffffffffffffffffffff160217905550602082015181600101556040820151816002019081610d099190611a99565b5060608201518160030160006101000a81548160ff0219169083151502179055506080820151816004015550508473ffffffffffffffffffffffffffffffffffffffff16817fd092aa6bd062adb1bfc5959cbdd866715dcdfc4d24cf6dfa48b182fb5ad4e276868686604051610d8193929190611ba7565b60405180910390a35050505050565b600160003373ffffffffffffffffffffffffffffffffffffffff1673ffffffffffffffffffffffffffffffffffffffff16815260200190815260200160002060009054906101000a900460ff16610e1c576040517f08c379a0000000000000000000000000000000000000000000000000000000008152600401610e139061155c565b60405180910390fd5b806003805490508110610e64576040517f08c379a0000000000000000000000000000000000000000000000000000000008152600401610e5b906115c8565b60405180910390fd5b8160038181548110610e7957610e786115e8565b5b906000526020600020906005020160030160009054906101000a900460ff1615610ed8576040517f08c379a0000000000000000000000000000000000000000000000000000000008152600401610ecf90611663565b60405180910390fd5b600060038481548110610eee57610eed6115e8565b5b9060005260206000209060050201905060025481600401541015610f47576040517f08c379a0000000000000000000000000000000000000000000000000000000008152600401610f3e90611c25565b60405180910390fd5b60018160030160006101000a81548160ff02191690831515021790555060008160000160009054906101000a900473ffffffffffffffffffffffffffffffffffffffff1673ffffffffffffffffffffffffffffffffffffffff16826001015483600201604051610fb79190611cd3565b60006040518083038185875af1925050503d8060008114610ff4576040519150601f19603f3d011682016040523d82523d6000602084013e610ff9565b606091505b505090508061103d576040517f08c379a000000000000000000000000000000000000000000000000000000000815260040161103490611d36565b60405180910390fd5b847fddb556f1d2c1ec821e910b019d3685b229db152a0ecd517ca7e24b8bd713928960405160405180910390a25050505050565b6000819050919050565b61108481611071565b82525050565b600060408201905061109f600083018561107b565b6110ac602083018461107b565b9392505050565b600080fd5b600080fd5b6110c681611071565b81146110d157600080fd5b50565b6000813590506110e3816110bd565b92915050565b6000602082840312156110ff576110fe6110b3565b5b600061110d848285016110d4565b91505092915050565b600073ffffffffffffffffffffffffffffffffffffffff82169050919050565b600061114182611116565b9050919050565b61115181611136565b82525050565b600060208201905061116c6000830184611148565b92915050565b6000602082019050611187600083018461107b565b92915050565b61119681611136565b81146111a157600080fd5b50565b6000813590506111b38161118d565b92915050565b6000602082840312156111cf576111ce6110b3565b5b60006111dd848285016111a4565b91505092915050565b60008115159050919050565b6111fb816111e6565b82525050565b600060208201905061121660008301846111f2565b92915050565b60008060408385031215611233576112326110b3565b5b6000611241858286016110d4565b9250506020611252858286016111a4565b9150509250929050565b600081519050919050565b600082825260208201905092915050565b60005b8381101561129657808201518184015260208101905061127b565b60008484015250505050565b6000601f19601f8301169050919050565b60006112be8261125c565b6112c88185611267565b93506112d8818560208601611278565b6112e1816112a2565b840191505092915050565b600060a0820190506113016000830188611148565b61130e602083018761107b565b818103604083015261132081866112b3565b905061132f60608301856111f2565b61133c608083018461107b565b9695505050505050565b600081519050919050565b600082825260208201905092915050565b6000819050602082019050919050565b61137b81611136565b82525050565b600061138d8383611372565b60208301905092915050565b6000602082019050919050565b60006113b182611346565b6113bb8185611351565b93506113c683611362565b8060005b838110156113f75781516113de8882611381565b97506113e983611399565b9250506001810190506113ca565b5085935050505092915050565b6000602082019050818103600083015261141e81846113a6565b905092915050565b600080fd5b600080fd5b600080fd5b60008083601f84011261144b5761144a611426565b5b8235905067ffffffffffffffff8111156114685761146761142b565b5b60208301915083600182028301111561148457611483611430565b5b9250929050565b600080600080606085870312156114a5576114a46110b3565b5b60006114b3878288016111a4565b94505060206114c4878288016110d4565b935050604085013567ffffffffffffffff8111156114e5576114e46110b8565b5b6114f187828801611435565b925092505092959194509250565b600082825260208201905092915050565b7f4e6f74206f776e65720000000000000000000000000000000000000000000000600082015250565b60006115466009836114ff565b915061155182611510565b602082019050919050565b6000602082019050818103600083015261157581611539565b9050919050565b7f5472616e73616374696f6e20646f6573206e6f74206578697374000000000000600082015250565b60006115b2601a836114ff565b91506115bd8261157c565b602082019050919050565b600060208201905081810360008301526115e1816115a5565b9050919050565b7f4e487b7100000000000000000000000000000000000000000000000000000000600052603260045260246000fd5b7f5472616e73616374696f6e20616c726561647920657865637574656400000000600082015250565b600061164d601c836114ff565b915061165882611617565b602082019050919050565b6000602082019050818103600083015261167c81611640565b9050919050565b7f416c726561647920617070726f76656400000000000000000000000000000000600082015250565b60006116b96010836114ff565b91506116c482611683565b602082019050919050565b600060208201905081810360008301526116e8816116ac565b9050919050565b7f4e487b7100000000000000000000000000000000000000000000000000000000600052601160045260246000fd5b600061172982611071565b915061173483611071565b925082820190508082111561174c5761174b6116ef565b5b92915050565b7f4e487b7100000000000000000000000000000000000000000000000000000000600052602260045260246000fd5b6000600282049050600182168061179957607f821691505b6020821081036117ac576117ab611752565b5b50919050565b7f4e6f7420617070726f7665640000000000000000000000000000000000000000600082015250565b60006117e8600c836114ff565b91506117f3826117b2565b602082019050919050565b60006020820190508181036000830152611817816117db565b9050919050565b600061182982611071565b915061183483611071565b925082820390508181111561184c5761184b6116ef565b5b92915050565b7f496e76616c696420726563697069656e74000000000000000000000000000000600082015250565b60006118886011836114ff565b915061189382611852565b602082019050919050565b600060208201905081810360008301526118b78161187b565b9050919050565b7f4e487b7100000000000000000000000000000000000000000000000000000000600052604160045260246000fd5b60008190508160005260206000209050919050565b60006020601f8301049050919050565b600082821b905092915050565b60006008830261194f7fffffffffffffffffffffffffffffffffffffffffffffffffffffffffffffffff82611912565b6119598683611912565b95508019841693508086168417925050509392505050565b6000819050919050565b600061199661199161198c84611071565b611971565b611071565b9050919050565b6000819050919050565b6119b08361197b565b6119c46119bc8261199d565b84845461191f565b825550505050565b600090565b6119d96119cc565b6119e48184846119a7565b505050565b5b81811015611a08576119fd6000826119d1565b6001810190506119ea565b5050565b601f821115611a4d57611a1e816118ed565b611a2784611902565b81016020851015611a36578190505b611a4a611a4285611902565b8301826119e9565b50505b505050565b600082821c905092915050565b6000611a7060001984600802611a52565b1980831691505092915050565b6000611a898383611a5f565b9150826002028217905092915050565b611aa28261125c565b67ffffffffffffffff811115611abb57611aba6118be565b5b611ac58254611781565b611ad0828285611a0c565b600060209050601f831160018114611b035760008415611af1578287015190505b611afb8582611a7d565b865550611b63565b601f198416611b11866118ed565b60005b82811015611b3957848901518255600182019150602085019450602081019050611b14565b86831015611b565784890151611b52601f891682611a5f565b8355505b6001600288020188555050505b505050505050565b82818337600083830152505050565b6000611b868385611267565b9350611b93838584611b6b565b611b9c836112a2565b840190509392505050565b6000604082019050611bbc600083018661107b565b8181036020830152611bcf818486611b7a565b9050949350505050565b7f4e6f7420656e6f75676820617070726f76616c73000000000000000000000000600082015250565b6000611c0f6014836114ff565b9150611c1a82611bd9565b602082019050919050565b60006020820190508181036000830152611c3e81611c02565b9050919050565b600081905092915050565b60008154611c5d81611781565b611c678186611c45565b94506001821660008114611c825760018114611c9757611cca565b60ff1983168652811515820286019350611cca565b611ca0856118ed565b60005b83811015611cc257815481890152600182019150602081019050611ca3565b838801955050505b50505092915050565b6000611cdf8284611c50565b915081905092915050565b7f457865637574696f6e206661696c656400000000000000000000000000000000600082015250565b6000611d206010836114ff565b9150611d2b82611cea565b602082019050919050565b60006020820190508181036000830152611d4f81611d13565b905091905056fea26469706673582212205a9fdfb54cbed3e8bdb09684d5e2c069bb9e79f500063013c6a8c6e58074b0a464736f6c63430008140033",
  "linkReferences": {},
  "deployedLinkReferences": {}
}